:020000040800F2
:10000000D80700209101000863220008CF1C0008D7
:1000100061220008BD080008F72300080000000066
:100020000000000000000000000000009322000813
:10003000DD08000800000000652200089522000885
:10004000AB010008AB010008AB010008AB010008E0
:10005000AB010008AB010008AB010008AB010008D0
:10006000AB010008AB010008AB010008AB010008C0
:10007000AB010008AB010008AB010008AB010008B0
:10008000AB010008AB010008AB010008AB010008A0
:10009000AB010008AB010008AB010008AB01000890
:1000A000AB010008AB010008AB010008AB01000880
:1000B000AB010008AB010008AB010008AB01000870
:1000C000AB010008AB010008AB010008AB01000860
:1000D000AB010008AB010008AB010008AB01000850
:1000E000AB010008AB010008AB01000800F002F80A
:1000F00000F03FF80AA090E8000C82448344AAF183
:100100000107DA4501D100F034F8AFF2090EBAE880
:100110000F0013F0010F18BFFB1A43F0010318473B
:100120003C2700005C270000103A24BF78C878C143
:10013000FAD8520724BF30C830C144BF04680C60ED
:10014000704700000023002400250026103A28BF35
:1001500078C1FBD8520728BF30C148BF0B60704739
:10016000752900F07780002070471FB51FBD10B5BE
:1001700010BD00F030FA1146FFF7F7FF02F0F0F97A
:1001800000F04EFA03B4FFF7F2FF03BC00F056FA9A
:100190000948804709480047FEE7FEE7FEE7FEE71B
:1001A000FEE7FEE7FEE7FEE7FEE7FEE70448054957
:1001B000054A064B7047000011230008ED000008B7
:1001C000D8010020D8070020D8030020D803002041
:1001D0000FB41CB50C0007AA009001D02044401EAB
:1001E000074B7B4469460190069800F0B2F9002C59
:1001F00003D06946002000F0BFF91CBC5DF814FB79
:100200009D03000070B5044685690068C10601D5EC
:10021000302600E02026C00707D070BDD4E90121B8
:1002200030469047206A401C20626D1EF6D570BD96
:1002300070B5044685690078C00707D170BDD4E960
:10024000012120209047206A401C20626D1EF6D5B7
:1002500070BD00002DE9F0410646002410687529A4
:10026000314616A510D0AFF30080002802DA4042D4
:1002700013A507E031688A0701D512A502E04907F6
:1002800004D511A5012401E0AFF3008000210A226A
:1002900006F1240709E0B0FBF2FCB0FBF2F302FB2D
:1002A0001C00303078541846491C0028F3D12346EE
:1002B0002A463046BDE8F04100F0ECB800000000EE
:1002C0002D0000002B000000200000002DE9F04769
:1002D0004FF0000A89460446C0F820A02046E16895
:1002E0008847002876D0252806D0D4E901219047F8
:1002F000206A401C2062F1E7E1682046002588471B
:10030000C4F81CA006460027C4F818A02A2E09D05D
:10031000304602F081F838B304EB8708303EC8F865
:10032000186019E059F8041B204604EB870291611C
:10033000E1688847012F064618D1E069002820DAD5
:1003400025F020051DE0D8F8180000EB800006EB32
:1003500040003038C8F818002046E1688847064653
:1003600002F05AF80028EED1012F0AD02E2E08D123
:100370002046E16888477F1C0646022F45F020058D
:10038000C4DBA069002803DA404245F00105A06102
:10039000E80701D025F01005B6B1A6F141001928F3
:1003A00002D8203645F400654A463146204625608D
:1003B0004D46FFF7D5FE58B1012806D0ED1D25F0BA
:1003C000070000F1080989E704E005F1040985E761
:1003D00030468AE7206ABDE8F08702F0FF0343EA6F
:1003E000032242EA024200F0D6B84FF0000200B504
:1003F000134694469646203922BFA0E80C50A0E848
:100400000C50B1F12001BFF4F7AF090728BFA0E8F5
:100410000C5048BF0CC05DF804EB890028BF40F8C1
:10042000042B08BF704748BF20F8022B11F0804F03
:1004300018BF00F8012B704710B5044610F0030FE9
:1004400008BF11F0030F40F015804FF0013E121F5E
:10045000C0F20E8051F8043BA3EB0E0C2CEA030C07
:100460001CEACE1C08BF40F8043BF0D0A1F1040107
:1004700002F10402521E08DB11F8013B002B00F8C8
:10048000013BF7D1114600F084F8204610BD7047BB
:10049000704770472DE9F0470D469946924604464D
:1004A00000F124080168880604D5E06921F01001F4
:1004B000216000E00120A84201DD471B00E0002789
:1004C000A1697A1902EB0900081AA0612078C00618
:1004D00002D42046FFF796FE002608E0D4E9012169
:1004E0001AF806009047206A401C761C20624E4590
:1004F000F4DB2078C0060AD52046FFF783FE06E02D
:10050000D4E9012130209047206A401C2062381E27
:10051000A7F10107F4DC07E0D4E9012118F8050090
:100520009047206A401C2062281EA5F10105F3DCDB
:100530002046FFF77DFE2078000602D50220BDE8A8
:10054000F0870120FBE7000001694A1C026108787E
:10055000704700B58FB0CDE9013100210591054903
:100560007944CDE9031011466846FFF7AFFE0FB09E
:1005700000BD0000E5FFFFFF0A6802F8010B0A60FA
:100580007047D1E900239A4202D2531C0B601070CD
:1005900070474FF000020429C0F0128010F0030CE5
:1005A0003FF425AFCCF1040CBCF1020F18BF00F8EA
:1005B000012BA8BF20F8022BA1EB0C01FFF717BFFE
:1005C0005FEAC17C24BF00F8012B00F8012B48BF73
:1005D00000F8012B7047754600F02CF8AE46050078
:1005E0006946534620F00700854618B020B5FFF74E
:1005F000DDFDBDE820404FF000064FF000074FF052
:1006000000084FF0000B21F00701AC46ACE8C00930
:10061000ACE8C009ACE8C009ACE8C0098D46704739
:1006200010B50446AFF300802046BDE81040FFF748
:10063000A9BD00000048704778010020014918203A
:10064000ABBEFEE7260002007047000070B504460E
:1006500000688168C943C90717D1816821F0010189
:10066000816000F0B5FC05460AE000BF00F0B0FC78
:10067000401B022804D920688068C043C00706D008
:1006800020688068C043C007F0D0002070BDA06A19
:1006900040F01000A062E06A40F00100E06201203A
:1006A00070BD0000F8B50026044600960068816819
:1006B000C943C9072DD0816841F001018160164806
:1006C00016490068B0FBF1F000E0401E00900028E1
:1006D000FBD100F07DFC054616E000BF00F078FC81
:1006E000401B022810D920688068C043C0070BD087
:1006F000A06A40F01000A062E06A40F00100E062F1
:1007000084F824600120F8BD20688068C043C007D9
:10071000E4D10020F8BD00002400002040420F007A
:1007200070B50D46044600F053FC2168411AA942F9
:1007300002D32060012070BD002070BD70B504465A
:10074000058B40F6C4120120002140F6FC039542BF
:1007500002D32077A07703E09D4201D82177A177CB
:10076000658B954201D3607702E09D4200D86177A6
:10077000207F08B1012100E00021084801F076FD4A
:10078000607F08B1012100E000210448083001F039
:100790006DFDA07FBDE8704000F092B80000002021
:1007A00010B5044601780120062904D2DFE801F0E3
:1007B0000305172B3035207010BD4FF4FA61201D52
:1007C000FFF7AEFF48B1194801F038FF207520B19E
:1007D0001648027B6275417BA1750220EBE7C821B8
:1007E00004F10800FFF79CFF58B110480A21FC38BB
:1007F00001F036FC20830D480A21CC3801F001FCC1
:1008000060830320D7E72046FFF798FF0420D2E754
:10081000204600F00DF80520CDE740F6B83104F190
:100820001000FFF77DFF0620C5E70000240100202F
:1008300038B504464FF4FA710C30FFF771FF002809
:1008400023D0207D40B1A07D0090637D0FA21121B7
:100850001248FFF7BDFC04E011A211210F48FFF779
:10086000B7FC608B00900D48238B11A21121113031
:10087000FFF7AEFC0949002001F08EFB0749BDE8F7
:1008800038401131012001F087BB38BD543A253280
:10089000754320483A253275252500005401002073
:1008A00044485431312052656164204661696C00CE
:1008B000473A253475204C3A25347500FEE7000090
:1008C00008B1012200E000222021014800F07BBB9A
:1008D000000C014002608160838070477047000017
:1008E000F8B50024009490F824202546012A12D05F
:1008F000012280F824204A681F23072A0DD20668A7
:10090000776B521E02EB820293409F430B68934029
:100910001F43776319E00220F8BD06680D2A0AD24A
:10092000376BD21F02EB820293409F430B689340C8
:100930001F43376309E0F76A0D3A02EB82029340E6
:100940009F430B6893401F43F7620A6807230668BA
:100950000A2A0AD3F7680A3A02EB420293409F43FD
:100960008B6893401F43F76008E0376902EB42024F
:1009700093409F438B6893401F4337610A68102A56
:1009800001D0112A20D1124B02689A4217D19368E4
:100990001B0219D4936843F400039360096810297B
:1009A00012D10C490C4A0968B1FBF2F101EB81014B
:1009B000490000E0491E00910029FBD104E0816A52
:1009C00041F020018162012480F824502046F8BDC6
:1009D000002401402400002040420F000068C06C49
:1009E000704700002DE9F0414FF0000704003D463C
:1009F0007ED0A06A002628B9E66284F824602046EA
:100A000000F07EF82046FFF721FEA16AC90600D457
:100A100020B1A06A40F01000A06269E0A16A21F450
:100A2000885141F00201A1626268E169237B0A43B7
:100A300047EA43010A43A1684FF48077B94209D0DD
:100A4000012907D05FF0000194F814C0BCF1010F38
:100A500002D00AE03946F7E7F3B1A36A43F0200376
:100A6000A362E36A43F00103E3622368D3F804C09E
:100A70002CF4694C4CEA010CC3F804C021688B6863
:100A8000DFF870C003EA0C0313438B60A168B9421E
:100A90000BD0012909D00CE0DFF85CC0A3690CEB96
:100AA00043330B4343F40061DFE7218A0D05A5F5CD
:100AB00080152168CB6A23F470032B43CB62216835
:100AC00089680E4B1940914208D1E662A16A21F073
:100AD000020141F00101A162BDE8F081A06A20F0AD
:100AE000020040F01000A062E06A40F00100E06205
:100AF0000120F1E7FDF7E1FF00E0FFFFFE0E1FFF21
:100B000010B586B0002100910191029103911A4C19
:100B100003681A4903221A48A34211D18B6943F48E
:100B200000738B618B6903F4007304938B6943F04A
:100B300004038B61896901F004010491082113E029
:100B4000104CA34215D18B6943F480638B618B6990
:100B500003F4806304938B6943F004038B61896918
:100B600001F0040104910221CDE90012694600F070
:100B700035F906B010BD000000240140001002400D
:100B800000080140002801402DE9F84300270D46E8
:100B90000446009700F01CFA804620688168C90569
:100BA00008D5A06A40F02000A06284F824700120DB
:100BB000BDE8F8834168C90503D4C06A10F4700F1A
:100BC0002AD0022000F01CFC3B490968B1FBF0F67A
:100BD0002068036939490B424FEA61014FEAA112CB
:100BE0001FD1C3684FEA611C13EA0C0F19D10369C6
:100BF0000B4225D1C068104222D1142023E0681C8A
:100C00000AD02DB100F0E4F9A0EB0800A84203D906
:100C100020680068800725D5206800688007EED529
:100C20002DE003690B4202D1C168114206D002696E
:100C300023490A4206D1C068084203D1542002E089
:100C4000292000E0FC204643009816E0681C11D0E3
:100C50002DB100F0BDF9A0EB0800A8420AD9009818
:100C6000B04207D2A06A40F00400A06284F8247069
:100C700003209DE70098401C0090B042E6D3216815
:100C80006FF012000860A06A40F40070A062206853
:100C90008068C0F3424007280CD1207B50B9A06A7D
:100CA00020F48070A062A06AC00403D4A06A40F05F
:100CB0000100A06200207BE7240000202449922448
:100CC0004992240070B5044690F8240001280DD004
:100CD000012084F824002046FFF7E4FC02004FF0D6
:100CE000000005D084F82400104670BD022070BDBD
:100CF000A16A40F20123994341F48071A1621F4D22
:100D000023681F49AB4218D10E6816F4702F14D017
:100D1000A66A46F48016A6620E68760505D5A66A10
:100D200026F4005646F48056A662A66AF6040AD552
:100D3000E66A26F00606E66206E0A66A26F4801653
:100D4000A6625E68E9E7E06284F824006FF00200C2
:100D5000186020688368C3F34243072B05D1A8427B
:100D600008D1096811F4702F04D0816841F4801112
:100D70008160B9E7816841F4A001F9E700280140EA
:100D80000424014010B5044690F82400012807D03F
:100D9000012084F824002046FFF758FC10B107E03A
:100DA000022010BDA16A21F4885141F00101A16225
:100DB000002184F8241010BD70B5044600F008F935
:100DC0000546601C02D004480078044400F000F995
:100DD000401BA042FAD370BD180000202DE9F84F47
:100DE000DFF8B8910024A9F1040B23460F2709F17D
:100DF000040AABF1040EC9E00125A5402A40AA422D
:100E00007DD1674ED1F804C0ACEB0608B44532D0B2
:100E100014DCBCF1030F3AD009DCBCF1000F2AD07E
:100E2000BCF1010F1CD0BCF1020F31D11DE0BCF1AF
:100E3000110F17D0BCF1120F2AD119E0B8F5881F95
:100E400019D006DCB8F5803F15D0B8F5801F1FD14A
:100E500011E0B8F5001F0ED0B8F5041F18D10AE054
:100E6000CB6815E0CB681B1D12E0CB6808330FE0A0
:100E7000CB680C330CE08B682BB1012B4FF00803CF
:100E800003D0456104E0042302E0056100E0002393
:100E9000FF2A01D8064601E000F104064FEA840566
:100EA00001D9A5F12005D6F8008007FA05FC28EA4B
:100EB0000C0803FA05F548EA0508C6F800804D68F5
:100EC000ED0062D5374DAE6946F00106AE61AD6901
:100ED00024F0030605F001050095334D06EB050CE3
:100EE000DCF80850A607360F07FA06F825EA0805C9
:100EF000DFF8B880404503D14FF0000817E044E028
:100F0000DFF8AC80404502D14FF001080FE0DFF878
:100F1000A480404502D14FF0020808E0DFF8988035
:100F2000404502D14FF0030801E04FF0040808FAF1
:100F300006F848EA0508CCF808804D68D9F8006042
:100F4000ED024D4601D5164300E096432E604D68F4
:100F5000DAF80060AD02554601D5164300E096432D
:100F60002E604D68DBF80060AD035D4601D5164389
:100F700000E096432E604D68DEF80060ED03754694
:100F800001D5164300E096432E60641C0D682A4686
:100F9000E5407FF431AFBDE8F88F00000804014060
:100FA0000000111000100240000001400008014044
:100FB000000C01400010014000140140806808400E
:100FC00000D0012070470AB1016170470904FBE7B6
:100FD00001488068704700001800002070B50400C8
:100FE00025D094F83D00002520B984F83C502046D7
:100FF00000F04EF9242084F83D002068016821F0BB
:10100000010101602068016841F40041016020682D
:10101000016821F40041016000F050FB4D4A616815
:10102000914201D84C4900E04C49884201D201204C
:1010300070BD4B492368B0FBF1F15E6826F03F06B6
:101040000E435E606368934206D94FF4967359432A
:101050004FF47A73B1FBF3F12368491C1E6A26F042
:101060003F06314319626168914210D84900401E21
:10107000B0FBF1F2521CC2F30B02042A01D204208D
:1010800022E0B0FBF1F0401CC0F30B001CE0A268B2
:10109000F2B301EBC10303EB0116431EB3FBF6F3FE
:1010A0005B1C43F480431B0549D092B301EBC102A2
:1010B00002EB0111401EB0FBF1F0401CC0F30B002D
:1010C00040F4804040F400402168CA694CF6FF7348
:1010D0009A431043C861D4E90710014320680268AD
:1010E00022F0C00211430160D4E9030101432068EA
:1010F000826848F2FF339A4311438160D4E90501C5
:1011000008432168CA6822F0FF021043C86001E06A
:101110000EE016E02068016841F0010101602564DD
:10112000202084F83D00256384F83E50002070BDE7
:1011300001EB4106431EB3FBF6F35B1CB3E7012052
:10114000C2E701EB4101401EB0FBF1F0401CC0F3CF
:101150000B00B7E7A086010080841E0000093D0057
:1011600040420F002DE9F84F1F4690468A4604463C
:10117000DDF82890FFF72CFF054694F83D00202865
:101180007FD11923012240492046009500F032FE0C
:10119000002876D194F83C00012872D0012084F810
:1011A0003C0020680168C90703D1016841F00101D2
:1011B00001602068016821F400610160212084F849
:1011C0003D00102084F83E0000262664C4F82480E8
:1011D0006785608D20852D48E0622B464A46514642
:1011E000204600F08DFD90B920684169806900902B
:1011F00036E02A464946204600F0A2FE50B1206C57
:10120000042804D12068016841F4007101600120C4
:10121000BDE8F88F606A216800780861606A401C48
:101220006062618D491E6185218D491E89B22185CB
:1012300022685369DB435B070BD451B1007810611E
:10124000606A401C6062608D401E6085208D401E7B
:1012500020852A464946204600F0A0FD0028CED130
:10126000208D0028C5D154F83D0B016841F4007170
:101270000160202004F81E09E67766770020C7E7A2
:10128000FFE70220C4E70000020010000000FFFF9B
:1012900010B586B000210091019102910391006880
:1012A0000F4988421AD10F4CA06940F00800A06194
:1012B000A069694600F008000490C0200090122048
:1012C0000190032003900848FFF788FDE06940F48F
:1012D0000010E061E06900F40010049006B010BD59
:1012E0000054004000100240000C01400248816898
:1012F000027811448160704718000020074810B53B
:10130000016841F010010160032000F067F80F2030
:1013100000F006F800F024F8002010BD0020024084
:1013200070B50D4D04464FF47A712878B1FBF0F09A
:101330000A490968B1FBF0F000F096FB48B9102C9F
:1013400007D200222146501E00F028F800206C60D1
:1013500070BD012070BD0000180000202400002096
:101360000C4808B5816941F001018161816901F092
:1013700001010091C16941F08051C161C06900F073
:10138000805000900448416821F0E06141F0007114
:10139000416008BD0010024000000140F0B40E4B57
:1013A0001B680C46C3F30223C3F10705042D00D9C3
:1013B0000425191D072901D2002300E0DB1E0126A8
:1013C00006FA05F1491E214099409E40761E1640BE
:1013D0003143F0BC01F010B80CED00E0064900F01C
:1013E000070208684FF6FF03184040EA0220034A4C
:1013F00010430860704700000CED00E00000FA05A3
:1014000010B501460020234C012922D0022939D0F1
:1014100010291DD161682268D20119D51E48C1F377
:101420008342C903805C0AD561681B4AC1F340410D
:10143000921E515C194AB2FBF1F1484301E0184990
:1014400048436168490203D440000321B0FBF1F036
:1014500010BD226AC2F30121012903D1920701D5EF
:10146000C80310BD022905D1626A920702D549F668
:10147000404010BD0329FCD121688903F9D54FF202
:10148000244010BD00F02AF96168C1F38131491C84
:101490004900DBE7001002403228000800127A0001
:1014A00000093D002DE9F84305460078354CC0079A
:1014B00054D0E0690026C00008D4E06940F08050B4
:1014C000E061E069012600F0805000902E4801683C
:1014D000C90512D40168804641F480710160FFF7AC
:1014E00077FD074605E000BFFFF772FDC01B6428CB
:1014F00023D8D8F80000C005F6D5206A10F4407053
:1015000021D0A98801F4407181421CD0206A1F4972
:10151000012220F440700A6000220A602062C007A5
:1015200011D0FFF755FD074641F2883808E000BFAB
:10153000FFF74EFDC11B414502D90320BDE8F883EA
:10154000206A8007F4D5206A696820F44070084357
:1015500020621EB1E06920F08050E06128788007A9
:1015600005D56068A96820F4404008436060287889
:10157000C00605D56068E96820F480000843606013
:101580000020DBE7001002400070004040044242AF
:101590002DE9F0470F46050061D0434E306800F05A
:1015A0000700B84209D2306820F0070038433060A5
:1015B000306800F00700B84251D128683B4C8107E1
:1015C00012D5400703D5606840F4E0606060287879
:1015D000000703D5606840F4605060606068A968E7
:1015E00020F0F000084360602878C00728D06868C1
:1015F000012810D02168022810D0890700292EDA8E
:10160000616821F0030101436160FFF7E1FC80465E
:1016100041F288390DE021688903EFE78901EDE7A0
:10162000FFF7D6FCA0EB0801494502D90320BDE82D
:10163000F0876068696800F00C00B0EB810FEFD1B3
:10164000306800F00700B8420BD9306820F007007E
:1016500038433060306800F00700B84201D0012004
:10166000E5E72878400705D56068E96820F4E06080
:10167000084360602878000706D56068296920F46F
:10168000605040EAC100606000F038F86168084AC4
:10169000C1F30311515CC840064908600648006860
:1016A000FFF73EFE0020C2E700200240001002408B
:1016B00042280008240000201C000020044805499E
:1016C00000684968044AC1F30221515CC840704770
:1016D0002400002000100240522800080448054958
:1016E00000684968044AC1F3C221515CC840704790
:1016F0002400002000100240522800080E4A5168C1
:101700000E4801F00C03042B11D0082B0FD10C480C
:10171000C1F38343C903C05C0AD55168084AC1F3C9
:101720004041921E515C054A5043B0FBF1F07047B6
:1017300004494843704700000010024000127A003C
:101740002028000800093D002DE9F84F040070D062
:101750002078C04DC00749D06868C0F381000128D7
:1017600007D06868C0F38100022809D16868C00307
:1017700006D52868800339D560680028E7D035E0B1
:101780006068B0F5803F0BD010B1B0F5A02F11D03C
:10179000286820F480302860286820F4802002E047
:1017A000286840F480302860606890B1FFF710FC32
:1017B00006460AE0286840F480202860F0E700BF71
:1017C000FFF706FC801B642873D828688003F7D5D0
:1017D0000CE0FFF7FDFB064605E000BFFFF7F8FB56
:1017E000801B6428F0D828688003F7D420789A4EAC
:1017F00080074FF001094FF0000839D5686810F0F4
:101800000C0F07D06868C0F38100022809D168680E
:10181000C00306D42868800714D52069012808D1A0
:1018200010E02069B0B1C6F80090FFF7D1FB074681
:1018300005E00AE1FFF7CCFBC01B0228C4D82868EA
:101840008007F7D52868616920F0F80040EAC100F8
:1018500028600DE0C6F80080FFF7BAFB074604E0F9
:10186000FFF7B6FBC01B022823D828688007F7D4EF
:10187000207800072CD57948A169D9B1C0F800902B
:10188000FFF7A6FB074604E0FFF7A2FBC01B0228F8
:101890000FD8686A8007F7D571484FF4FA5100688D
:1018A000B0FBF1F0009000BF0098411E0091FAD209
:1018B0000EE080E0C0F80080FFF78AFB074604E0F6
:1018C000FFF786FBC01B022875D8686A8007F7D42B
:1018D0002078400760D5E8690027C00008D4E8698F
:1018E00040F08050E861E869012700F080500090E6
:1018F0005C480168C90513D40168834641F48071CE
:101900000160FFF765FB824606E000BFFFF760FB62
:10191000A0EB0A0064284ED8DBF80000C005F5D51E
:10192000E06801280AD008B1052813D0286A20F001
:1019300001002862286A20F0040002E0286A40F0D2
:1019400001002862E06841F2883B98B1FFF740FB54
:1019500082460BE0286A40F004002862EEE700BFF0
:10196000FFF736FBA0EB0A0159455AD8286A8007D1
:10197000F6D50CE0FFF72CFB824605E0FFF728FBCD
:10198000A0EB0A0159454CD8286A8007F6D41FB14C
:10199000E86920F08050E861E06988B36968C1F3C4
:1019A0008101022944D00228C6F8608004D0FFF7E4
:1019B0000FFB044638E034E0FFF70AFB074604E07B
:1019C000FFF706FBC01B02282BD828688001F7D43C
:1019D000206AB0F5803F05D16868A16820F4003026
:1019E00008436860D4E908010843696821F4741168
:1019F00008436860C6F86090FFF7EAFA044606E01C
:101A000025E000BFFFF7E4FA001B022809D8286888
:101A10008001F7D51BE000BFFFF7DAFA001B0228B0
:101A200002D90320BDE8F88F28688001F4D40EE0C5
:101A30000128F7D06868226A00F48031914204D10D
:101A4000616A00F47010884201D00120EAE70020AA
:101A5000E8E70000001002400000424280044242D9
:101A6000240000200070004010B5401EB0F1807FBF
:101A700001D3012010BD4FF0E02460610F216017F9
:101A800000F0BAFC0020A06107202061002010BDFA
:101A900070B590F83C20012A26D0012480F83C4003
:101AA000022280F83D2003685A689D6822F0700683
:101AB0000A6832435A600D4B02689A4208D0B2F16C
:101AC000804F05D00A4B9A4202D00A4B9A4204D169
:101AD000496825F080031943916080F83D4000215A
:101AE00080F83C10084670BD022070BD002C0140FB
:101AF000000400400008004010B5040003D094F832
:101B00003D0010B107E0012010BD002084F83C002A
:101B1000204600F01FF8022084F83D00211D2068B7
:101B200000F0F8FB012084F8460084F83E0084F8B9
:101B30003F0084F8400084F8410084F8420084F8B3
:101B4000430084F8440084F8450084F83D000020F8
:101B500010BD000008B500680649884208D1064853
:101B6000816941F400618161806900F40060009046
:101B700008BD0000002C01400010024090F83D100C
:101B8000012901D001207047022180F83D10006832
:101B90000B49884208D0B0F1804F05D009498842EE
:101BA00002D00949884204D1816801F00701062961
:101BB00003D0016841F0010101600020704700007E
:101BC000002C0140000400400008004001680A6A3F
:101BD00041F211131A4207D10A6A9B101A4203D12B
:101BE0000A6822F001020A60012180F83D100020FD
:101BF000704770B5044690F83C000025012817D0C6
:101C0000012684F83C60022084F83D002068826848
:101C100022F0770222F47F4282600868502838D090
:101C20000DDC20284FD005DC90B3102811D14AE0FC
:101C3000022070BD302846D040280AD13BE0602801
:101C40002FD070280DD0B0F5805F03D0B0F5005FC5
:101C500012D0012584F83D60002084F83C0028461D
:101C600070BDCB68D1E90121206800F08FFB2068AE
:101C7000816841F0770109E0CB68D1E90121206852
:101C800000F084FB2068816841F480418160E1E7D5
:101C900019E0CA684968206800F08AFB5021206872
:101CA00006E0CA684968206800F093FB602120685C
:101CB00000F076FBCEE7CA684968206800F078FB40
:101CC00040212068F4E7226801461046F0E7FEE76D
:101CD00001684A69D24352050FD46FF480624A61A9
:101CE000002140F8301F202242738173026942F0C4
:101CF0000402026101730120704700207047000058
:101D0000F8B50446C06A1E460D461746082807D097
:101D1000012805D010F5803F02D0206B122804D195
:101D20002068016841F480710160134600224FF081
:101D300001112046009600F05DF840B1206800686F
:101D4000C00502D54FF4007020640320F8BD20695F
:101D5000B0F5804F0ED00620216800EAD51040F083
:101D6000F000086133463A460B49204600F08AF8F5
:101D700078B902E005F0FE0000E0E8B221680861F1
:101D8000054933463A46891F204600F07BF8002873
:101D9000DCD00120F8BD00000800010070B5164637
:101DA0000D4604461EE02046FFF792FF08B10120D1
:101DB00070BD681C16D0FFF70BF9801BA84200D835
:101DC00085B920684069C04340070BD5002044F81E
:101DD000300F20216173A073216941F0200121613E
:101DE0002073E4E720684069C0434007DBD400204B
:101DF00070BD00002DE9F047984617460D46044691
:101E0000C1F30746DDF820902AE000BFB8F1FF3F9C
:101E100026D0FFF7DDF8A0EB0901414502D8B8F163
:101E2000000F1DD12068012E16D0806925EA000020
:101E30000004000C12D00020B84211D1002044F858
:101E4000300F20216173A073216941F020012161CD
:101E500020730120BDE8F0874069E7E70120EBE748
:101E60002068012E0AD0806925EA00000004000CD9
:101E700006D00020B842C9D00020EBE74069F3E764
:101E80000120F7E72DE9F047984616460D4604462F
:101E90004FF000094FF0200AC1F3074723E0206804
:101EA0004069C043400515D42068016841F40071C1
:101EB000016021686FF480604861C4F8309084F854
:101EC0003DA084F83E90216C41F00401216484F827
:101ED0003C9021E0701C06D0FFF77AF8A0EB0800D8
:101EE000B04203D816B1012F1FD021E02068012F86
:101EF00015D0806925EA00000004000C18D000BF4E
:101F000044F8309F84F80DA084F80E90216941F0C8
:101F10002001216184F80C900120BDE8F087406920
:101F200025EA00000004000CEAD12068406901E0C5
:101F30002068806925EA00000004000CAFD1ECE7BE
:101F400070B516460D4604461EE02046FFF7C0FE5B
:101F500008B1012070BD681C16D0FFF739F8801B4E
:101F6000A84200D885B920684069C04300060BD557
:101F7000002044F8300F20216173A073216941F0E3
:101F8000200121612073E4E720684069C043000616
:101F9000DBD4002070BD000030B585B00D4604468E
:101FA000202210216846FEF718FA00208DF8100054
:101FB000102229466846FEF73FFA224600210448CF
:101FC00000F03AFA6946024800F083FA05B030BDE5
:101FD0001000002070B50546FEF774FE0A21284661
:101FE000FEF7D2FD0028284603D0FEF7CBFE0020E6
:101FF00070BDFEF7F3FC84B22846FEF7C3FE204610
:1020000070BD2DE9F0410E0007464FF0000501D0EC
:10201000002408E00020BDE8F0813846FFF7DAFF31
:10202000641C0544E4B2B442F7D3B5FBF6F080B2C9
:10203000F1E770B50546FEF745FE0A212846FEF792
:10204000A3FD0028284603D0FEF79CFE002070BDAB
:10205000FEF7C4FC84B22846FEF794FE204670BD0D
:102060002DE9F0410E0007464FF0000501D0002495
:1020700008E00020BDE8F0813846FFF7DAFF641C75
:102080000544E4B2B442F7D3B5FBF6F080B2F1E711
:102090003EB500211148009101910F4A0291026062
:1020A00081600173017501244FF460220461C261F3
:1020B0004160FEF797FC08B172B6FEE70320CDE958
:1020C00000040620029069460448FEF709FC002837
:1020D00001D072B6FEE73EBD00240140280000207A
:1020E0003EB500211148009101910F4A0291026012
:1020F00081600173017501244FF460220461C261A3
:102100004160FEF76FFC08B172B6FEE7062000944E
:10211000CDE9014069460548FEF7E2FB002801D001
:1021200072B6FEE73EBD00000028014058000020C6
:102130002DE9F04186B000242C48009401940294CB
:102140000394816941F020018161816901F02001DE
:102150000491816941F004018161816901F0040108
:102160000491816941F0080181618069204F00F08C
:1021700008004FF403650490002229463846FEF714
:1021800022FFDFF87080002220214046FEF71BFF6F
:102190000520CDE90004694638460294FEF71EFE8C
:1021A0000095022601250396CDE90154694638467B
:1021B000FEF714FE4FF410408DE8310069463846B2
:1021C000FEF70CFE18208DE8310069464046FEF708
:1021D00005FE2020CDE90005CDE9024669464046CE
:1021E000FEF7FCFD06B0BDE8F081000000100240E3
:1021F00000080140000C014010B586B000241748CB
:10220000009401940294039404941349059401608A
:102210003F21C0E901144FF6FF71C0E90314446186
:102220008461FFF769FC08B172B6FEE74FF4805095
:10223000009069460948FFF7DCFC08B172B6FEE77A
:10224000049404A905480594FFF722FC002801D056
:1022500072B6FEE706B010BD002C0140DC00002085
:10226000FEE7FEE77047002100F002B8AFF3008000
:1022700070B582790D460446012904D0012A01D0A7
:10228000012200E00022A1882068FEF79CFEE57193
:1022900070BD7047FFF72AB830B593B02821684663
:1022A000FEF7A3F814210AA8FEF79FF800240225E0
:1022B00001200F94049000951020059012944FF483
:1022C0006010CDE908401194109407956846FFF717
:1022D0003BFA08B172B6FEE70F20CDE90A054FF4CC
:1022E0008060CDE90C4002210AA80E94FFF750F956
:1022F00008B172B6FEE74FF4004011900F950FA899
:10230000FFF7D0F8002801D072B6FEE713B030BD59
:1023100070470000F0B50268194B1A4C1A4D4FF087
:102320008047984205D0B84203D0A04201D0A842CD
:1023300003D122F070064A683243984205D0B84271
:1023400003D0A04201D0A84203D122F44074CA684D
:1023500022434C6922F08002224302608A68C262F2
:102360000A688262984201D10969016301214161D1
:102370000169C90703D0016921F001010161F0BDC4
:10238000002C0140000400400008004010B58468A3
:1023900042EA032224F47F440A432243826010BDB0
:1023A000826822F070020A4342F0070181607047A0
:1023B00010B5036A046A24F001040462846924F0FD
:1023C000F00444EA021423F00A020A438461026220
:1023D00010BD10B5036A046A24F010040462846915
:1023E00023F0A00324F4704444EA023243EA0111CA
:1023F0008261016210BDFEE70907090E002804DBB7
:1024000000F1E02080F80014704700F00F0000F1A8
:10241000E02080F8141D704730380A2801D20120CE
:1024200070470020704710B5012100F05EF8BDE84C
:1024300010400220FEF7C0BC2AB1012A05D1C031EC
:10244000C9B200F052B88031FAE7704710B50446BF
:102450003220FEF7B1FC3021204600F046F805207E
:10246000FEF7AAFC3021204600F03FF80120FEF7DD
:10247000A3FC3021204600F038F80A20FEF79CFC2F
:102480002021204600F031F80A20FEF795FC282193
:10249000204600F02AF80120FEF78EFC0821204695
:1024A00000F023F80120FEF787FC0121204600F010
:1024B0001CF80220FEF780FC0621204600F015F8EB
:1024C0000120FEF779FC2046BDE810400C2100F009
:1024D0000CB870B50C46054603E02846641C00F0B5
:1024E00021F821780029F8D170BD1CB501F0F00267
:1024F00042F00C038DF8043042F0080209018DF817
:10250000052041F00C028DF8062041F008018DF8FD
:1025100007106421009101790068042301AAFEF7E5
:1025200021FE1CBD1CB501F0F00242F00D038DF838
:10253000043042F0090209018DF8052041F00D0236
:102540008DF8062041F009018DF8071064210091F3
:1025500001790068042301AAFEF704FE1CBD0000F7
:10256000FEF7CCFEFFF798FEFFF7E2FD274C26486A
:10257000002520602648C4E901054FF48040C4E9E5
:1025800003506561A561E56120462562FEF726FDE1
:1025900008B172B6FEE7FFF77BFDFFF72DFEFFF7F0
:1025A0009FFD1A494FF4006354311A4A01F1480063
:1025B000FEF790F918484E2104600171FFF746FFBD
:1025C0001548FFF730FF14481038FFF74CFE12484B
:1025D0000838FFF748FE0020FEF772F90B4820216B
:1025E000AC30FDF702FF09480CA1AC3005700020AB
:1025F000FFF7D2FC0DA10120FFF7CEFC0348AC3061
:10260000FEF7CEF8FAE700000054004088000020F2
:10261000A086010000080140100000205379737467
:10262000656D20426F6F74696E67000053544D33BF
:102630003220496F54204E6F646500002DE9F04F41
:102640004FF0000B8BB004465E465D465F460121AD
:1026500000F0CDF8A18800222068FEF7B4FC12201B
:10266000FEF7AAFB72B6A068FFF788FA00212046A1
:1026700000F0BDF8A1684FF000090968C1F8249086
:102680004FF4FA7A07E0A0680068406A80B25045CB
:1026900001D962B6A3E0A1882068FEF78FFC01286B
:1026A000F1D0A1680968C1F8249003E0406A80B2C3
:1026B0005045EED8A1882068FEF780FC0028A0686D
:1026C0000068F3D0416A1FFA81F80021416201E0FD
:1026D0005045DED8A1882068FEF770FC0128A0686C
:1026E0000068406A80B2F3D0A8F14B010B29D0D228
:1026F0004B380B28CDD24FF00009C846A1680968B5
:10270000C1F8248005E0A0680068406A80B25045A6
:10271000BFD8A1882068FEF751FC0028F3D0A1683B
:102720000968C1F8248001E05045B2D8A18820682A
:10273000FEF744FC0128A0680068406A80B2F3D02C
:10274000A0F11501092901D2002003E03D3813282A
:1027500001D2012083460DF809B009F10109B9F150
:10276000280FCBDBA068FFF731FA62B6002168467C
:10277000425C491C66F35F02D6B20829F8DB0023ED
:102780001A46082110F801C0491C63F35F0C0CF0D5
:10279000FF031029F6DB102110F801C0491C65F376
:1027A0005F0C0CF0FF051829F6DB182110F801C0AA
:1027B000491C62F35F0C0CF0FF022029F6DB20219C
:1027C00010F801C0491C67F35F0C0CF0FF072829C3
:1027D000F6DBF01828441044C0B2B84203D0002001
:1027E0000BB0BDE8F08F257366730120F8E71FB5C5
:1027F000002200920192029203920322012909D041
:10280000002906D181880091039200686946FEF78D
:10281000E5FA1FBD8188009101210191F4E70102D1
:1028200002030405060708090A0B0C0D0E0F101011
:10283000010202030405060708090A0B0C0D0E0F1E
:102840001010000000000000000001020304060751
:102850000809000000000102030400007C280008B1
:10286000000000202800000028010008A42800081B
:1028700028000020B00700004401000800080140C3
:1028800020000000000801401000000000000000CF
:102890000000000001000000100000000000000027
:0428A00000127A00A8
:04000005080000ED02
:00000001FF
